:020000001628C0
:0E0006008312031322088A00210882000800DA
:1000140003208A110A128000840AA10A0319A20A81
:08002400F003031D0A28080087
:10002C00803083120313A00083168E1507308312C1
:10003C009F00FF308316850086018312051C4F2814
:10004C0020088600A00D20100330FB008A30FC0035
:10005C005530FD00FD0B3028FC0B3028FB0B3028F5
:10006C0000000000861F4E280130A00001308600E1
:10007C00A00D20100330FB008A30FC005530FD0031
:10008C00FD0B4628FC0B4628FB0B46280000000005
:10009C00752820088600A00CA0130330FB008A30C2
:1000AC00FC005530FD00FD0B5928FC0B5928FB0BAF
:1000BC00592800000000061C75288030A0008030F4
:1000CC0086000330FB008A30FC005530FD00FD0B30
:1000DC006D28FC0B6D28FB0B6D28000000002328FD
:0200EC00762874
:02400E006A2125
:00000001FF
