:0200000049288D
:0E0006008312031329088A00280882000800CC
:1000140003208A110A128000840AA80A0319A90A73
:08002400F003031D0A28080087
:10002C00831203132E088600033085000230FB0078
:10003C008630FC009930FD00FD0B2228FC0B222899
:10004C00FB0B22282A088600063085000230FB00B4
:10005C008630FC009930FD00FD0B3228FC0B322859
:10006C00FB0B32282C088600053085000230FB0083
:10007C008630FC009930FD00FD0B4228FC0B422819
:06008C00FB0B42280800F6
:1000920083120313A001A101A201A301A401A501DE
:1000A200A601A70183168E15860160308500831292
:1000B200850186012008AA002108AB002208AC00B5
:1000C2002308AD002408AE002508AF001620851EC7
:1000D2007D28851E6D286A28A609A7090630FB001F
:1000E2001330FC00AD30FD00FD0B7528FC0B7528AC
:1000F200FB0B75280000000026082704031984283A
:10010200A00A0319A10A00302106031D8A280A3019
:100112002006031D9128A001A101A20A0319A30A26
:1001220000302306031D97280A302206031D9E284D
:10013200A201A301A40A0319A50A00302506031D82
:10014200A4280A3024060319A928051BA928AF28C8
:10015200A001A101A201A301A401A5010330FB009A
:100162008A30FC005530FD00FD0BB528FC0BB5288C
:0C017200FB0BB528000000005B28BE2835
:02400E00592136
:00000001FF
