:020000001628C0
:0E0006008312031321088A00200882000800DC
:1000140003208A110A128000840AA00A0319A10A83
:08002400F003031D0A28080087
:10002C00831603138E15073083129F0080308316BE
:10003C008500FF30860083120510851F44280514A7
:10004C000B30FB002630FC005D30FD00FD0B2C2836
:10005C00FC0B2C28FB0B2C280000000005100B308F
:10006C00FB002630FC005D30FD00FD0B3B28FC0B3B
:10007C003B28FB0B3B2800000000452805102328DB
:02008C00462804
:02400E00592136
:00000001FF
