:020000002928AD
:0E0006008312031329088A00280882000800CC
:1000140003208A110A128000840AA80A0319A90A73
:08002400F003031D0A28080087
:10002C00831203132A0885000430F1002E08F00017
:10003C00710803192528F00D7010FF3E1F28700859
:06004C002C0786000800ED
:1000520083120313A001A101A201A301A401A5011E
:10006200A601A70183168E158601F0308500831242
:10007200850186012608AA002708AB002008AC00EB
:100082002108AD002208AE002308AF001620851E0D
:100092005D28851E4D284A28A409A5090630FB00C3
:1000A2001330FC00AD30FD00FD0B5528FC0B55282C
:1000B200FB0B5528000000002408250403196428BE
:1000C200A60A0319A70A00302706031D6A280A3068
:1000D2002606031D7128A601A701A00A0319A10A79
:1000E20000302106031D77280A302006031D7E28D2
:1000F200A001A101A20A0319A30A00302306031DCD
:1001020084280A30220603198928051B89288F288A
:10011200A601A701A001A101A201A3010230FB00D7
:100122000430FC00BA30FD00FD0B9528FC0B95282D
:0A013200FB0B952800003B289D28D8
:02400E00592136
:00000001FF
