:020000001628C0
:0E0006008312031322088A00210882000800DA
:1000140003208A110A128000840AA10A0319A20A81
:08002400F003031D0A28080087
:10002C00013083120313A00083168E150730831240
:10003C009F00FF308316850086018312051C5F2804
:10004C0020088600A00D20100330FB008A30FC0035
:10005C005530FD00FD0B3028FC0B3028FB0B3028F5
:10006C0000000000861F5F284030A000A301A401FF
:10007C0080302406F00080307002031D47280630C3
:10008C00230203185F2820088600A00CA01303305D
:10009C00FB008A30FC005530FD00FD0B5328FC0B97
:1000AC005328FB0B532800000000A30A0319A40AD1
:0600BC003E282328602805
:02400E006A2125
:00000001FF
